S0120000636F64655374727563742E73726563F2
S11300000C9434000C943E000C943E000C943E007E
S11300100C943E000C943E000C943E000C943E0064
S11300200C943E000C943E000C943E000C943E0054
S11300300C943E000C943E000C943E000C943E0044
S11300400C943E000C943E000C943E000C943E0034
S11300500C943E000C943E000C943E000C943E0024
S11300600C943E000C943E0011241FBECFEFD8E048
S1130070DEBFCDBF0E9468000C948B000C9400007E
S1130080DC01FB0112962D913C911397828193819F
S11300902817390789F011969C911197218192179D
S11300A029F0892F90E0821B910908958C9190E0AA
S11300B02081821B9109089580E090E008951BB887
S11300C00E94400021E0892B09F020E0822F08954E
S11300D0CF93DF93CDB7DEB72A970FB6F894DEBF80
S11300E00FBECDBF4EE1498399E09A8321EE37E0FC
S11300F03C832B8381E08D834E839F8339872887BC
S11301008A87BE016A5F7F4FCE0101960E945F001D
S10D011081111BB8FFCFF894FFCF54
S9030000FC
