:100000000C9434000C9449000C9449000C94490061
:100010000C9449000C9449000C9449000C9449003C
:100020000C9449000C9449000C9449000C9449002C
:100030000C9449000C9449000C9449000C9449001C
:100040000C9449000C9449000C9449000C9449000C
:100050000C9449000C9449000C9449000C944900FC
:100060000C9449000C94490011241FBECFEFD8E036
:10007000DEBFCDBF11E0A0E0B1E0E8E6F1E002C0F4
:1000800005900D92A435B107D9F70E944B000C944E
:10009000B2000C9400000E94870080E091E00E9472
:1000A000A3002FEF81EE94E0215080409040E1F7D3
:1000B00000C000000E949B00D82F0E94930082E5A0
:1000C00091E00E94A3008BE191E00E94A3002FEF3A
:1000D00081EE94E0215080409040E1F700C00000A4
:1000E0000E949B00C82F0E94930082E591E00E942D
:1000F000A30084E391E00E94A3008D2F8C0F805316
:100100000E94930081E591E00E94A300C6CF109267
:10011000C50087E68093C40088E18093C10086E033
:100120008093C2000895E0ECF0E0908195FFFDCF50
:100130008093C6000895E0ECF0E080818823ECF71E
:100140008091C6000895CF93DF93EC0188818823C6
:1001500031F021960E94930089918111FBCFDF91AC
:08016000CF910895F894FFCF40
:10016800446967697465206F207072696D6569728A
:100178006F206E756D65726F3A2000446967697407
:1001880065206F20736567756E646F2076616C6F8C
:10019800723A20004120736F6D6120646F73206490
:1001A8006F69732076616C6F7265732065683A2099
:0401B800000A0A002F
:00000001FF
